:100000000C9434000C9449000C9449000C94490061
:100010000C9449000C9449000C9449000C9449003C
:100020000C9449000C9449000C9449000C9449002C
:100030000C9449000C9449000C9449000C9449001C
:100040000C9449000C9449000C9449000C9449000C
:100050000C9449000C9449000C9449000C944900FC
:100060000C9449000C94490011241FBECFEFD8E036
:10007000DEBFCDBF11E0A0E0B1E0E0E6FCE002C0F1
:1000800005900D92A232B107D9F70E9433040C9467
:100090002E060C9400002B9A85E08A95F1F700005B
:1000A0002B9808952C9890E0B0E0A0E024E0B6955D
:1000B000A795979587952A95D1F7817031F0599A30
:1000C0005A9A5B985C980C944B005998F9CFCF9250
:1000D000DF92EF92FF92CF93C82FC82ED12CF12C34
:1000E000E12CD701C60164E0B695A7959795879551
:1000F0006A95D1F7817009F449C0599AD701C601B0
:1001000055E0B695A795979587955A95D1F7817043
:1001100009F43EC05A9AD701C60146E0B695A795A4
:10012000979587954A95D1F78170A1F15B9AC7FFA2
:1001300033C05C9A0E944B00C0FF30C0599AD7016F
:10014000C601B695A79597958795817049F15A9AFA
:10015000D701C60122E0B695A795979587952A9570
:10016000D1F78170F9F05B9A83E0F694E794D79425
:10017000C7948A95D1F78C2D8170B1F05C9ACF919C
:10018000FF90EF90DF90CF900C944B005998B6CF32
:100190005A98C1CF5B98CBCF5C98CCCF5998CFCF32
:1001A0005A98D6CF5B98E0CF5C98E9CFCF9351981F
:1001B0005298539854982C982A9A2B9A85E08A95AD
:1001C000F1F70000C9B12B980E944B00C4FDF5CF98
:1001D000519A529A539A549A2A98CF910895CF934C
:1001E000C82F0E94D6002C988C2FCF910C946700BA
:1001F000519A529A539A549A249A229A239A599825
:100200005A985B985C982C982A982B982FEF89EF36
:1002100090E0215080409040E1F700C0000080E372
:100220000E9452008FE39CE90197F1F700C00000A3
:1002300080E30E9452008FE99FE00197F1F700C030
:10024000000080E30E9452008FE99FE00197F1F7E0
:1002500000C0000080E20E94520088E20E94EF008D
:100260008CE00E94EF0086E00E94EF0081E00C9499
:10027000EF00CF93C82F0E94D6002C9A8C2FCF91DD
:100280000C94670081E00C94EF00803150F46230F0
:1002900040F46295660F660F607C862B80680C9434
:1002A000EF000895CF93682F80E00E944501C1E1DF
:1002B00080E20E943901C150D9F7CF9108958F9201
:1002C0009F92AF92BF92CF92DF92EF92FF920F93E5
:1002D0001F93CF93DF930E94D60051985298539862
:1002E00054982C982A9A2B9A65E06A95F1F70000A9
:1002F00069B189B159B12B982B9A95E09A95F1F78C
:10030000000099B149B139B129B166956170C62F24
:1003100060E0D62F64E0CC0FDD1F6A95E1F782FB29
:10032000AA24A0F8B12C75E0AA0CBB1C7A95E1F7C1
:100330008C2F8A2996959170892B53FBCC24C0F879
:10034000D12CE6E0CC0CDD1CEA95E1F78C2942FBD0
:10035000EE24E0F8F12CEE0CFF1C8E2933FB002775
:1003600000F910E0000F111F000F111F802B24FB5C
:10037000882480F8912CB3E0880C991CBA95E1F799
:1003800088292B98519A529A539A549A2A9890E015
:10039000803414F0805491E0DF91CF911F910F9140
:1003A000FF90EF90DF90CF90BF90AF909F908F9095
:1003B0000895EF92FF920F931F93CF93DF937C01E9
:1003C000C62F6830F8F40E945F01182F092F28E02B
:1003D000C29FC001112480640E94EF00E701C701A1
:1003E00008967C0189910E943901CE15DF05D1F76D
:1003F000602F812FDF91CF911F910F91FF90EF9090
:100400000C944501DF91CF911F910F91FF90EF90D8
:100410000895EF92FF920F931F93CF93DF937C0188
:10042000C62F683018F50E945F01182F092F28E0A9
:10043000C29FC001112480640E94EF00E701C70140
:1004400008967C01E9910E2E000CFF0B84910E940E
:100450003901CE15DF05B1F7602F812FDF91CF91E4
:100460001F910F91FF90EF900C944501DF91CF9178
:100470001F910F91FF90EF9008950E945F010895E2
:100480000E945F01892F08950C943901CF93DF9367
:10049000EC018991811103C0DF91CF9108950E94F1
:1004A0003901F7CFCF93DF93EC01FE0184912196C0
:1004B000811103C0DF91CF9108950E943901F5CFDA
:1004C000CF93DF93CDB7DEB72C970FB6F894DEBF8E
:1004D0000FBECDBF462F572FBC01411551056105F9
:1004E000710559F480E32C960FB6F894DEBF0FBE69
:1004F000CDBFDF91CF910C943901411551056105B4
:1005000030E8730709F4C1C0FE0133968AE0DF01C9
:100510001D928A95E9F780E3898320E077FF08C080
:1005200070956095509541955F4F6F4F7F4F21E0DB
:1005300080E34130BAEC5B07BAE96B07BBE37B07AA
:1005400094F0DB01CA019A5CAA49BB4381303AECC2
:1005500093073AE9A3073BE3B3070CF49FC0545950
:100560006543774782E38A8380E3982F8F5F411545
:10057000A1EE5A07A5EF6A07A5E07A070CF092C032
:100580009B8380E3982F8F5F4038B6E95B07B8E91B
:100590006B0771050CF08AC09C8380E3982F8F5FF6
:1005A000403432E453073FE0630771050CF083C029
:1005B0009D8380E3982F8F5F403AA6E85A07A1E019
:1005C0006A0771050CF07CC09E8380E3982F8F5FD3
:1005D0004031B7E25B07610571050CF076C09F837F
:1005E00080E3982F8F5F483E33E053076105710524
:1005F0000CF070C0988780E3982F8F5F44365105C8
:10060000610571050CF06BC0998780E3982F8F5FAF
:100610004A305105610571050CF066C09A87405D4E
:100620004B8780E0982F8F5FE1E0F0E0EC0FFD1F3B
:10063000E80FF11D30813033A9F3222349F0E1E0C6
:10064000F0E0EC0FFD1FE90FF11D8DE28083892F93
:100650003AE0381B20E090E0E1E0F0E0EC0FFD1F15
:10066000E20FF11DDF01A80FB91F4C9140832F5FEE
:10067000321790F7E1E0F0E0EC0FFD1FE20FF11D03
:100680001082CE0101960E9446022C960FB6F89475
:10069000DEBF0FBECDBFDF91CF910895AC01BD018C
:1006A00081E361CF515E654F75405FCF4058564939
:1006B0006849710967CF405452446F4071096ECF49
:1006C000405A56486140710975CF405157426109FF
:1006D00071097CCF485E53406109710982CF44564D
:1006E00051096109710988CF4A505109610971099D
:1006F0008DCFCF92DF92EF92FF920F931F93CF9304
:10070000DF9300D000D000D0CDB7DEB76B017C0105
:10071000C982DA82EB82FC8289014E835D8320E00C
:1007200030E0A9010E94CF04811117C080E30E942C
:1007300039018EE20E94390180E326960FB6F894C3
:10074000DEBF0FBECDBFDF91CF911F910F91FF9004
:10075000EF90DF90CF900C94390120E030E040E042
:100760005FEC69817A818B819C810E94BC0587FD49
:100770006BC020E030E040E05FE469817A818B81EA
:100780009C810E94CF0487FF5FC020E030E0A90178
:1007900069817A818B819C810E94CF0487FF0CC084
:1007A00089819A81AB81BC81B05889839A83AB835C
:1007B000BC838DE20E94390169817A818B819C81A1
:1007C0000E94D4040E9460028EE20E943901698175
:1007D0007A818B819C810E94DB040E940A059B0127
:1007E000AC0169817A818B819C810E9462046B01DA
:1007F0007C01B8018E819D810E940A059B01AC019C
:10080000C982DA82EB82FC8269817A818B819C8148
:100810000E94C10569837A838B839C8369817A8175
:100820008B819C810E94D40426960FB6F894DEBF7B
:100830000FBECDBFDF91CF911F910F91FF90EF9031
:10084000DF90CF900C94600226960FB6F894DEBF2E
:100850000FBECDBFDF91CF911F910F91FF90EF9011
:10086000DF90CF90089500D000D0CDB7DEB70E94C2
:10087000F80060E080E00E94450180E091E00E9485
:1008800046020E944002282F30E050E040E0CA01BA
:10089000B9010E94600261E080E00E9445018FE0A2
:1008A00091E00E9446020E944002282F30E050E072
:1008B00040E0CA01B9010E94600284E191E00E9417
:1008C0004602FFCF5058BB27AA270E947A040C94F7
:1008D00082050E94740538F00E947B0520F039F4EF
:1008E0009F3F19F426F40C9471050EF4E095E7FB94
:1008F0000C946B05E92F0E94930558F3BA17620711
:1009000073078407950720F079F4A6F50C94B505D4
:100910000EF4E0950B2EBA2FA02D0B01B90190011A
:100920000C01CA01A0011124FF27591B99F0593F5E
:1009300050F4503E68F11A16F040A22F232F342FA6
:100940004427585FF3CF469537952795A795F040F4
:100950005395C9F77EF41F16BA0B620B730B840B09
:10096000BAF09150A1F0FF0FBB1F661F771F881FC1
:10097000C2F70EC0BA0F621F731F841F48F4879519
:1009800077956795B795F7959E3F08F0B0CF93950B
:10099000880F08F09927EE0F9795879508950E9484
:1009A000470508F481E008950E94DB046894B111C2
:1009B0000C94B60508950E949B0588F09F5798F007
:1009C000B92F9927B751B0F0E1F0660F771F881F54
:1009D000991F1AF0BA95C9F714C0B13091F00E946E
:1009E000B505B1E008950C94B505672F782F8827D9
:1009F000B85F39F0B93FCCF3869577956795B39595
:100A0000D9F73EF490958095709561957F4F8F4F03
:100A10009F4F0895E89409C097FB3EF49095809508
:100A2000709561957F4F8F4F9F4F9923A9F0F92FB4
:100A300096E9BB279395F695879577956795B79532
:100A4000F111F8CFFAF4BB0F11F460FF1BC06F5F18
:100A50007F4F8F4F9F4F16C0882311F096E911C02A
:100A6000772321F09EE8872F762F05C0662371F04B
:100A700096E8862F70E060E02AF09A95660F771F5F
:100A8000881FDAF7880F9695879597F90895990F3B
:100A90000008550FAA0BE0E8FEEF16161706E80748
:100AA000F907C0F012161306E407F50798F0621B69
:100AB000730B840B950B39F40A2661F0232B242B3E
:100AC000252B21F408950A2609F4A140A6958FEF5D
:100AD000811D811D089597F99F6780E870E060E0AF
:100AE00008959FEF80EC089500240A9416161706C7
:100AF00018060906089500240A941216130614060F
:100B000005060895092E0394000C11F4882352F071
:100B1000BB0F40F4BF2B11F460FF04C06F5F7F4F29
:100B20008F4F9F4F089557FD9058440F551F59F010
:100B30005F3F71F04795880F97FB991F61F09F3FCA
:100B400079F087950895121613061406551FF2CFF3
:100B50004695F1DF08C0161617061806991FF1CF43
:100B600086957105610508940895E894BB2766276A
:100B70007727CB0197F908950E94470508F48FEF76
:100B800008950E94D4050C9482050E94740538F0E3
:100B90000E947B0520F0952311F00C946B050C94BA
:100BA000710511240C94B6050E94930570F3959F6E
:100BB000C1F3950F50E0551F629FF001729FBB2754
:100BC000F00DB11D639FAA27F00DB11DAA1F649FF0
:100BD0006627B00DA11D661F829F2227B00DA11DA3
:100BE000621F739FB00DA11D621F839FA00D611D29
:100BF000221F749F3327A00D611D231F849F600D4A
:100C0000211D822F762F6A2F11249F5750409AF072
:100C1000F1F088234AF0EE0FFF1FBB1F661F771FFE
:100C2000881F91505040A9F79E3F510580F00C94C9
:100C30006B050C94B6055F3FE4F3983ED4F38695BC
:100C400077956795B795F795E7959F5FC1F7FE2B69
:100C5000880F911D9695879597F90895F894FFCF81
:100C600045434520333837206C696E653A20004C87
:100C700043445B005D20776F726B696E67212121B1
:020C8000000072
:00000001FF
